{
    "contractName": "MTKStaking",
    "abi": [
        {
            "inputs": [
                {
                    "internalType": "address",
                    "name": "_stakingToken",
                    "type": "address"
                }
            ],
            "stateMutability": "nonpayable",
            "type": "constructor"
        },
        {
            "anonymous": false,
            "inputs": [
                {
                    "indexed": true,
                    "internalType": "address",
                    "name": "user",
                    "type": "address"
                },
                {
                    "indexed": false,
                    "internalType": "uint256",
                    "name": "amount",
                    "type": "uint256"
                }
            ],
            "name": "RewardsClaimed",
            "type": "event"
        },
        {
            "anonymous": false,
            "inputs": [
                {
                    "indexed": true,
                    "internalType": "address",
                    "name": "depositor",
                    "type": "address"
                },
                {
                    "indexed": false,
                    "internalType": "uint256",
                    "name": "amount",
                    "type": "uint256"
                }
            ],
            "name": "RewardsDeposited",
            "type": "event"
        },
        {
            "anonymous": false,
            "inputs": [
                {
                    "indexed": true,
                    "internalType": "address",
                    "name": "user",
                    "type": "address"
                },
                {
                    "indexed": false,
                    "internalType": "uint256",
                    "name": "amount",
                    "type": "uint256"
                }
            ],
            "name": "Staked",
            "type": "event"
        },
        {
            "anonymous": false,
            "inputs": [
                {
                    "indexed": true,
                    "internalType": "address",
                    "name": "user",
                    "type": "address"
                },
                {
                    "indexed": false,
                    "internalType": "uint256",
                    "name": "amount",
                    "type": "uint256"
                }
            ],
            "name": "Withdrawn",
            "type": "event"
        },
        {
            "inputs": [
                {
                    "internalType": "address",
                    "name": "_user",
                    "type": "address"
                }
            ],
            "name": "calculateRewards",
            "outputs": [
                {
                    "internalType": "uint256",
                    "name": "",
                    "type": "uint256"
                }
            ],
            "stateMutability": "view",
            "type": "function"
        },
        {
            "inputs": [],
            "name": "claimRewards",
            "outputs": [],
            "stateMutability": "nonpayable",
            "type": "function"
        },
        {
            "inputs": [
                {
                    "internalType": "uint256",
                    "name": "_amount",
                    "type": "uint256"
                }
            ],
            "name": "depositRewards",
            "outputs": [],
            "stateMutability": "nonpayable",
            "type": "function"
        },
        {
            "inputs": [],
            "name": "emergencyWithdraw",
            "outputs": [],
            "stateMutability": "nonpayable",
            "type": "function"
        },
        {
            "inputs": [],
            "name": "owner",
            "outputs": [
                {
                    "internalType": "address",
                    "name": "",
                    "type": "address"
                }
            ],
            "stateMutability": "view",
            "type": "function"
        },
        {
            "inputs": [],
            "name": "rewardPool",
            "outputs": [
                {
                    "internalType": "uint256",
                    "name": "",
                    "type": "uint256"
                }
            ],
            "stateMutability": "view",
            "type": "function"
        },
        {
            "inputs": [],
            "name": "rewardRate",
            "outputs": [
                {
                    "internalType": "uint256",
                    "name": "",
                    "type": "uint256"
                }
            ],
            "stateMutability": "view",
            "type": "function"
        },
        {
            "inputs": [
                {
                    "internalType": "uint256",
                    "name": "_newRate",
                    "type": "uint256"
                }
            ],
            "name": "setRewardRate",
            "outputs": [],
            "stateMutability": "nonpayable",
            "type": "function"
        },
        {
            "inputs": [
                {
                    "internalType": "uint256",
                    "name": "_amount",
                    "type": "uint256"
                }
            ],
            "name": "stake",
            "outputs": [],
            "stateMutability": "nonpayable",
            "type": "function"
        },
        {
            "inputs": [
                {
                    "internalType": "address",
                    "name": "",
                    "type": "address"
                }
            ],
            "name": "stakes",
            "outputs": [
                {
                    "internalType": "uint256",
                    "name": "amount",
                    "type": "uint256"
                },
                {
                    "internalType": "uint256",
                    "name": "timestamp",
                    "type": "uint256"
                }
            ],
            "stateMutability": "view",
            "type": "function"
        },
        {
            "inputs": [],
            "name": "stakingToken",
            "outputs": [
                {
                    "internalType": "contract IERC20",
                    "name": "",
                    "type": "address"
                }
            ],
            "stateMutability": "view",
            "type": "function"
        },
        {
            "inputs": [],
            "name": "totalStaked",
            "outputs": [
                {
                    "internalType": "uint256",
                    "name": "",
                    "type": "uint256"
                }
            ],
            "stateMutability": "view",
            "type": "function"
        },
        {
            "inputs": [
                {
                    "internalType": "address",
                    "name": "newOwner",
                    "type": "address"
                }
            ],
            "name": "transferOwnership",
            "outputs": [],
            "stateMutability": "nonpayable",
            "type": "function"
        },
        {
            "inputs": [
                {
                    "internalType": "uint256",
                    "name": "_amount",
                    "type": "uint256"
                }
            ],
            "name": "withdraw",
            "outputs": [],
            "stateMutability": "nonpayable",
            "type": "function"
        }
    ],
    "bytecode": "60a0346100aa57601f610cc538819003918201601f19168301916001600160401b038311848410176100ae578084926020946040528339810103126100aa57516001600160a01b038116908190036100aa57655af3107a40006001556080525f80546001600160a01b03191633179055604051610c0290816100c3823960805181818161018b01528181610342015281816104af015281816105b8015281816107420152610abf0152f35b5f80fd5b634e487b7160e01b5f52604160045260245ffdfe6080806040526004361015610012575f80fd5b5f3560e01c90816316934fc41461083e575080632e1a7d4d14610683578063372500ab1461063b57806364ab86751461060457806366666aa9146105e757806372f702f3146105a35780637b0a47ee14610586578063817b1cd2146105695780638bdf67f2146104645780638da5cb5b1461043d5780639e447fc614610410578063a694fc3a14610290578063db2e21bc146101505763f2fde38b146100b6575f80fd5b3461014c57602036600319011261014c576004356001600160a01b0381169081900361014c575f546100f2336001600160a01b03831614610a06565b8115610107576001600160a01b031916175f55005b60405162461bcd60e51b815260206004820152601960248201527f4e6577206f776e6572206973207a65726f2061646472657373000000000000006044820152606490fd5b5f80fd5b3461014c575f36600319011261014c575f546001600160a01b0316610176338214610a06565b6040516370a0823160e01b81523060048201527f00000000000000000000000000000000000000000000000000000000000000006001600160a01b031691602082602481865afa91821561024f575f9261025a575b5060405163a9059cbb60e01b81526001600160a01b0390911660048201526024810191909152906020908290815f81604481015b03925af1801561024f5761021a915f91610220575b5061092e565b5f600255005b610242915060203d602011610248575b61023a81836108e0565b810190610916565b82610214565b503d610230565b6040513d5f823e3d90fd5b91506020823d602011610288575b81610275602093836108e0565b8101031261014c579051906101ff6101cb565b3d9150610268565b3461014c57602036600319011261014c576004355f546102b660ff8260a01c1615610883565b60ff60a01b1916600160a01b175f5580156103d3576102d433610a3f565b335f52600360205260405f206102eb8282546109f9565b9055335f52600360205242600160405f20015561030a816004546109f9565b60049081556040516323b872dd60e01b81523391810191909152306024820152604481018290526020816064815f6001600160a01b037f0000000000000000000000000000000000000000000000000000000000000000165af1801561024f5761037a915f916103b4575061092e565b6040519081527f9e71bc8eea02a63969f509818f2dafb9254532904319f9dbda79b67bd34a5f3d60203392a25f805460ff60a01b19169055005b6103cd915060203d6020116102485761023a81836108e0565b83610214565b60405162461bcd60e51b815260206004820152601560248201527443616e6e6f74207374616b65203020746f6b656e7360581b6044820152606490fd5b3461014c57602036600319011261014c5761043560018060a01b035f54163314610a06565b600435600155005b3461014c575f36600319011261014c575f546040516001600160a01b039091168152602090f35b3461014c57602036600319011261014c576004358015610524576040516323b872dd60e01b8152336004820152306024820152604481018290526020816064815f6001600160a01b037f0000000000000000000000000000000000000000000000000000000000000000165af1801561024f576104e7915f916103b4575061092e565b6104f3816002546109f9565b6002556040519081527fb8b27d0db504fa5d914f1fd330347096e88d5ff94b6c612d32797e7c12a8f66f60203392a2005b60405162461bcd60e51b815260206004820152601760248201527f43616e6e6f74206465706f736974203020746f6b656e730000000000000000006044820152606490fd5b3461014c575f36600319011261014c576020600454604051908152f35b3461014c575f36600319011261014c576020600154604051908152f35b3461014c575f36600319011261014c576040517f00000000000000000000000000000000000000000000000000000000000000006001600160a01b03168152602090f35b3461014c575f36600319011261014c576020600254604051908152f35b3461014c57602036600319011261014c576004356001600160a01b038116810361014c5761063360209161097f565b604051908152f35b3461014c575f36600319011261014c575f5461065d60ff8260a01c1615610883565b60ff60a01b1916600160a01b175f5561067533610a3f565b5f805460ff60a01b19169055005b3461014c57602036600319011261014c576004355f546106a960ff8260a01c1615610883565b60ff60a01b1916600160a01b175f5580156107f957335f5260036020528060405f2054106107b4576106da33610a3f565b335f52600360205260405f206106f18282546108bf565b9055335f52600360205242600160405f200155610710816004546108bf565b600490815560405163a9059cbb60e01b81523391810191909152602481018290526020816044815f6001600160a01b037f0000000000000000000000000000000000000000000000000000000000000000165af1801561024f5761077a915f916103b4575061092e565b6040519081527f7084f5476618d8e60b11ef0d7d3f06914655adb8793e28ff7f018d4c76d505d560203392a25f805460ff60a01b19169055005b60405162461bcd60e51b815260206004820152601a60248201527f496e73756666696369656e74207374616b656420616d6f756e740000000000006044820152606490fd5b60405162461bcd60e51b815260206004820152601860248201527f43616e6e6f74207769746864726177203020746f6b656e7300000000000000006044820152606490fd5b3461014c57602036600319011261014c576004356001600160a01b038116919082900361014c576040915f526003602052815f20600181549101549082526020820152f35b1561088a57565b60405162461bcd60e51b815260206004820152600d60248201526c4e6f207265656e7472616e637960981b6044820152606490fd5b919082039182116108cc57565b634e487b7160e01b5f52601160045260245ffd5b90601f8019910116810190811067ffffffffffffffff82111761090257604052565b634e487b7160e01b5f52604160045260245ffd5b9081602091031261014c5751801515810361014c5790565b1561093557565b60405162461bcd60e51b815260206004820152600f60248201526e151c985b9cd9995c8819985a5b1959608a1b6044820152606490fd5b818102929181159184041417156108cc57565b60018060a01b03165f52600360205260405f206040516040810181811067ffffffffffffffff821117610902576040526001825492838352015491826020830152156109f3576109e66109ef916109df670de0b6b3a764000094426108bf565b905161096c565b6001549061096c565b0490565b50505f90565b919082018092116108cc57565b15610a0d57565b60405162461bcd60e51b815260206004820152600a60248201526927b7363c9037bbb732b960b11b6044820152606490fd5b610a488161097f565b80610a51575050565b6002548111610b8757610aba60208260018060a01b03851694855f526003835242600160405f200155610a86826002546108bf565b60025560405163a9059cbb60e01b81526001600160a01b039091166004820152602481019190915291829081906044820190565b03815f7f00000000000000000000000000000000000000000000000000000000000000006001600160a01b03165af190811561024f575f91610b68575b5015610b2a5760207ffc30cddea38e2bf4d6ea7d3f9ed3b6ad7f176419f4963bd81318067a4aee73fe91604051908152a2565b60405162461bcd60e51b815260206004820152601660248201527514995dd85c99081d1c985b9cd9995c8819985a5b195960521b6044820152606490fd5b610b81915060203d6020116102485761023a81836108e0565b5f610af7565b60405162461bcd60e51b815260206004820152601c60248201527f496e73756666696369656e74207265776172647320696e20706f6f6c000000006044820152606490fdfea26469706673582212202fc3a9c06286df920e0743b782d6de45cc007efa5f6327fbd5a0cda00112ff8c64736f6c634300081c0033",
    "sourcePath": "/Users/qw246/Playgrounds/hyperevm-staking-example/contracts/MTKStaking.sol",
    "compiler": {
        "name": "solc",
        "version": "0.8.28+commit.7893614a"
    },
    "functionHashes": {
        "calculateRewards(address)": "64ab8675",
        "claimRewards()": "372500ab",
        "depositRewards(uint256)": "8bdf67f2",
        "emergencyWithdraw()": "db2e21bc",
        "owner()": "8da5cb5b",
        "rewardPool()": "66666aa9",
        "rewardRate()": "7b0a47ee",
        "setRewardRate(uint256)": "9e447fc6",
        "stake(uint256)": "a694fc3a",
        "stakes(address)": "16934fc4",
        "stakingToken()": "72f702f3",
        "totalStaked()": "817b1cd2",
        "transferOwnership(address)": "f2fde38b",
        "withdraw(uint256)": "2e1a7d4d"
    },
    "gasEstimates": {
        "creation": {
            "codeDepositCost": "614800",
            "executionCost": "infinite",
            "totalCost": "infinite"
        },
        "external": {
            "calculateRewards(address)": "infinite",
            "claimRewards()": "infinite",
            "depositRewards(uint256)": "infinite",
            "emergencyWithdraw()": "infinite",
            "owner()": "2477",
            "rewardPool()": "2344",
            "rewardRate()": "2388",
            "setRewardRate(uint256)": "24624",
            "stake(uint256)": "infinite",
            "stakes(address)": "4492",
            "stakingToken()": "infinite",
            "totalStaked()": "2410",
            "transferOwnership(address)": "24778",
            "withdraw(uint256)": "infinite"
        },
        "internal": {
            "_payRewards(address)": "infinite"
        }
    }
}